{
    "contractName": "ConvertLib",
    "abi": [
        {
            "constant": true,
            "inputs": [
                {
                    "internalType": "uint256",
                    "name": "amount",
                    "type": "uint256"
                },
                {
                    "internalType": "uint256",
                    "name": "conversionRate",
                    "type": "uint256"
                }
            ],
            "name": "convert",
            "outputs": [
                {
                    "internalType": "uint256",
                    "name": "convertedAmount",
                    "type": "uint256"
                }
            ],
            "payable": false,
            "stateMutability": "pure",
            "type": "function"
        }
    ],
    "bytecode": "0x60c3610025600b82828239805160001a60731461001857fe5b30600052607381538281f3fe730000000000000000000000000000000000000000301460806040526004361060335760003560e01c806396e4ee3d146038575b600080fd5b606b60048036036040811015604c57600080fd5b8101908080359060200190929190803590602001909291905050506081565b6040518082815260200191505060405180910390f35b600081830290509291505056fea265627a7a72315820a1d5885a9ab30872c00efbd8bcb39a5f6079d6b2b9fa263e735960594f289c2764736f6c63430005100032",
    "source": "// SPDX-License-Identifier: MIT\r\npragma solidity >=0.4.25 <0.7.0;\r\n\r\nlibrary ConvertLib{\r\n\tfunction convert(uint amount,uint conversionRate) public pure returns (uint convertedAmount)\r\n\t{\r\n\t\treturn amount * conversionRate;\r\n\t}\r\n}\r\n",
    "sourcePath": ".\\Truffle\\contracts\\ConvertLib.sol",
    "compiler": {
        "name": "solc",
        "version": "0.5.16+commit.9c3226ce.Emscripten.clang"
    },
    "schemaVersion": "3.4.3",
    "updatedAt": "2021-12-06T15:54:52.058Z",
    "devdoc": {
        "methods": {}
    },
    "userdoc": {
        "methods": {}
    }
}